:060000000A128A11FC2F18
:10009A004130831203139F00C030831603139F005D
:1000AA000800F800F401F5017008F200F301720883
:1000BA00F6007308F700781C632864286A28760813
:1000CA00F4070318F50A7708F50701300310F60D4F
:1000DA00F70DFF3E031D6B280310F80C7808031D6B
:1000EA007728782860287508F1007408F00008005D
:1000FA0000308312031321020E3003192002031C5D
:10010A008728882891280030A3000030A2000030F8
:10011A00A1000030A000DB28C530A40024089F05F8
:10012A002008A40002300310A40DFF3E031D9828E6
:10013A000310240DA50025089F040630831203131B
:10014A00A5002F30A400A40BA828A50BA828AD2829
:10015A00831203131F151F19B328B428B0281E08C9
:10016A00A400A5012408A500A401831603131E08F0
:10017A00831203132407F000003003180130250707
:10018A00F100F201F11BF2037208F30001300A12C6
:10019A008A1104220A128A11730883120313A30014
:1001AA007208A2007108A1007008A00008000030BF
:1001BA0083120313D6000030D5000030D40000307B
:1001CA00D3008316031388018312031308108316BE
:1001DA00031305140A128A114D200A128A110030DB
:1001EA0083120313A000A1000A128A117D200A12A9
:1001FA008A11831203132308D2002208D10021088E
:10020A00D0002008CF004430B8007F30B700C0309B
:10021A00B6000030B5004530A3009C30A200403043
:10022A00A1000030A0005208A7005108A6005008FB
:10023A00A5004F08A4000A128A119B240A128A11E7
:10024A00831203132308BC002208BB002108BA004A
:10025A002008B9000A128A11BE220A128A118312D0
:10026A0003133808D6003708D5003608D4003508F5
:10027A00D3004530F3008C30F200A030F10000309A
:10028A00F0005608F7005508F6005408F500530820
:10029A00F4000A128A1162210A128A1103185629D5
:1002AA0057295B29831203130814F42883120313B2
:1002BA000810F4280A128A11002800307005F80084
:1002CA0000307105F90080307205FA007F3073053D
:1002DA00FB007B087A0479047804031D75297629C2
:1002EA007E290030F3000030F2000030F1000030C7
:1002FA00F00000307405F80000307505F900803010
:10030A007605FA007F307705FB007B087A047904CA
:10031A007804031D912992299A290030F7000030A8
:10032A00F6000030F5000030F400F31F9D299E29E5
:10033A00C2290030F8000030F9000030FA0080309D
:10034A00FB007008F8027108031C710FAD29AE2971
:10035A00F9027208031C720FB329B429FA0273084E
:10036A00031C730FB929BA29FB027B08F3007A0828
:10037A00F2007908F1007808F000F71FC529C629AC
:10038A00EA290030F8000030F9000030FA00803025
:10039A00FB007408F8027508031C750FD529D629C5
:1003AA00F9027608031C760FDB29DC29FA027708A2
:1003BA00031C770FE129E229FB027B08F7007A0880
:1003CA00F6007908F5007808F4008030F3068030EA
:1003DA00F70677087302031DFC2976087202031DCB
:1003EA00FC2975087102031DFC29740870020318A0
:1003FA00FF29002A022A0310032A03140800F8001E
:10040A0078080319092A0A2A1E2AF31F0D2A0E2A16
:10041A001E2A7009FA007109FB007209FC007309AF
:10042A00FD00FA0A0319FB0A0319FC0A0319FD0A5B
:10043A00262A7308FD007208FC007108FB00700888
:10044A00FA007308720471047004031D2D2A2E2AFF
:10045A00372A0030F3000030F2000030F10000309B
:10046A00F000BD2A9630F4007408F900492A0130D8
:10047A00F4007408F90701300310FD0CFC0CFB0CA6
:10048A00FA0CFF3E031D412AFE307D05031D4E2A4C
:10049A004F2A3C2A6B2A0130F4007408F90701300C
:1004AA00FA07003003180130FB0700300318013047
:1004BA00FC07003003180130FD0701300310FD0C62
:1004CA00FC0CFB0CFA0CFF3E031D632AFF307D0572
:1004DA00031D702A712A502A7D2A0130F90201303F
:1004EA00F4000310FA0DFB0DFC0DFD0DF40B762A3A
:1004FA00FC1B802A812A872A023079020318862A5D
:10050A00872A722A79188A2A8B2A932AFF30FA05AF
:10051A00FF30FB057F30FC05FF30FD050310F90CA9
:10052A007908F400F501F601F70118300310F40D0B
:10053A00F50DF60DF70DFF3E031D9B2A7408FA040C
:10054A007508FB047608FC047708FD04780803198B
:10055A00AF2AB02AB52AF31FB32AB42AB52AFD173F
:10056A007D08F3007C08F2007B08F1007A08F000AD
:10057A000800831203133C088039BD003D08C600F9
:10058A003C08BD003D07BE003E08CD00BB1FCE2A79
:10059A00CF2AD02A4D144D080319D42AD52AE52A80
:1005AA004D0A031DD92ADA2AE22A0030BC0000309B
:1005BA00BB000030BA000030B900BB17BC01ED2AFD
:1005CA000030BC000030BB000030BA000030B90077
:1005DA0038088039BD003D08C6063808BD003D0709
:1005EA00BE003E08CE00B71FFB2AFC2AFD2A4E1485
:1005FA004E080319012B022B122B4E0A031D062B40
:10060A00072B0F2B0030B8000030B7000030B600BF
:10061A000030B500B717B8011A2B0030B800003007
:10062A00B7000030B6000030B50038083704360489
:10063A003504031D212B222B3B2B0030BC0000303C
:10064A00BB000030BA000030B9008030BB047F30F4
:10065A00BC044608BD003D08BC043C08B8003B0881
:10066A00B7003A08B6003908B5009A2C4D08031DA0
:10067A003F2B402B492B0030B8000030B700003028
:10068A00B6000030B5009A2C4D08BD00BE013E08E8
:10069A00C0004E083D02BF00031CC0033F087F3E56
:1006AA00C70040080318013E003EC8003C08C500C8
:1006BA003B08C4003A08C3003908C2000030BC0035
:1006CA000030BB000030BA000030B9000030CC0066
:1006DA000030CB000030CA000030C900CE01BF2B69
:1006EA004E080319792B7A2B9A2B0130BD0003107F
:1006FA00C20DC30DC40DC50DBD0B7C2B0130BD0051
:10070A000310B90DBA0DBB0DBC0DBD0B852BCC1F4B
:10071A008F2B902B912B39140130BD000310C90D7A
:10072A00CA0DCB0DCC0DBD0B932B38084502031D0A
:10073A00A82B37084402031DA82B36084302031DC1
:10074A00A82B35084202031CAB2BAC2BBB2B4C1736
:10075A003508C2023608031C360FC3023708031CC9
:10076A00370FC4023808031C380FC5020130BD0018
:10077A003D08CE071A304E02031CC42BC52B752B1D
:10078A0045084404430442040319CC2BCD2BEC2B1B
:10079A004914EC2B0130BD000310B90DBA0DBB0D85
:1007AA00BC0DBD0BD12BCC1FDB2BDC2BDD2B391465
:1007BA000130BD000310C90DCA0DCB0DCC0DBD0B08
:1007CA00DF2BFF30C7070318C80AFF30C807BB1F53
:1007DA00EF2BF02BCF2BCE01CC1FF42BF52B112CAA
:1007EA00FF304905BD00FF304A05BE00FF304B050A
:1007FA00BF007F304C05C00040083F043E043D0462
:10080A000319082C092C0C2CCE01CE0A112C391CE8
:10081A000F2C102C112C092C4E080319152C162CF0
:10082A00472C0130B907003003180130BA070030ED
:10083A0003180130BB07003003180130BC073C1C09
:10084A00272C282C472C3908BD003A08BE003B0843
:10085A00BF003C08C0000130C100400DC00CBF0CF5
:10086A00BE0CBD0CC10B322C4008BC003F08BB00BB
:10087A003E08BA003D08B9000130C7070318C80A84
:10088A000030C8074808803AFF0080307F02031D05
:10089A00502CFF304702031C532C542C622CFF307F
:1008AA0083120313C7000030C8000030BC000030B8
:1008BA00BB000030BA000030B900831203134808A5
:1008CA00803AFF0080307F02031D6D2C0130470201
:1008DA000318702C712C7E2C83120313C701C801D4
:1008EA000030BC000030BB000030BA000030B90054
:1008FA00C601831203134708BD003D08CD004D1CF5
:10090A00872C882C8A2CBB178E2C7F30BD003D0883
:10091A00BB054D08BD0003103D0CBE003E08BC00DF
:10092A004608BD003D08BC04322B0800831203139D
:10093A0023088039F9007908A8002308F900790703
:10094A00FA007A08AE00A21FAB2CAC2CAD2C2E14E8
:10095A002E080319B12CB22CC12C2E0A031DB62C59
:10096A00B72CBF2C0030A3000030A2000030A10039
:10097A000030A000A217C92C0030A3000030A2004A
:10098A000030A1000030A00027088039F90079085A
:10099A00A8062708F9007907FA007A08AD00A61F09
:1009AA00D72CD82CD92C2D142D080319DD2CDE2C8C
:1009BA00ED2C2D0A031DE22CE32CEB2C0030A700B2
:1009CA000030A6000030A5000030A400A617F52CC0
:1009DA000030A7000030A6000030A5000030A400B7
:1009EA002D080319F92CFA2CFF2C2E08031DFE2CB6
:1009FA00FF2C082D0030A3000030A2000030A10017
:100A0A000030A000FB2F2008F9007908F000260822
:100A1A000A128A1156200A128A11710883120313C4
:100A2A00B4007008B3003308F900FA01FB01FC01B5
:100A3A007C08AC007B08AB007A08AA007908A900F8
:100A4A003408F900FA01FB01FC017C08B2007B08BA
:100A5A00B1007A08B0007908AF002108F9007908D6
:100A6A00F00025080A128A1156200A128A11710802
:100A7A0083120313B4007008B3003308F900FA01B3
:100A8A00FB01FC017908A9077A0803110318013E42
:100A9A000319502DAA077B0803110318013E0319F5
:100AAA00572DAB077C0803110318013E03195E2D6D
:100ABA00AC073408F900FA01FB01FC017908AF0719
:100ACA007A0803110318013E03196C2DB0077B083D
:100ADA0003110318013E0319732DB1077C08031192
:100AEA000318013E03197A2DB2072208F900790882
:100AFA00F00024080A128A1156200A128A11710873
:100B0A0083120313B4007008B3003308F900FA0122
:100B1A00FB01FC017908A9077A0803110318013EB1
:100B2A000319982DAA077B0803110318013E03191C
:100B3A009F2DAB077C0803110318013E0319A62D4C
:100B4A00AC073408F900FA01FB01FC017908AF0788
:100B5A007A0803110318013E0319B42DB0077B0864
:100B6A0003110318013E0319BB2DB1077C080311B9
:100B7A000318013E0319C22DB2070830F900031009
:100B8A00A90DAA0DAB0DAC0DF90BC42D2108F90066
:100B9A007908F00024080A128A1156200A128A11CA
:100BAA00710883120313B4007008B3003308F90004
:100BBA003408FA00FB01FC017908A9077A08031135
:100BCA000318013E0319EA2DAA077B08031103182B
:100BDA00013E0319F12DAB077C0803110318013EEE
:100BEA000319F82DAC072008F9007908F000250848
:100BFA000A128A1156200A128A11710883120313E3
:100C0A00B4007008B3003308F9003408FA00FB0195
:100C1A00FC017908A9077A0803110318013E031990
:100C2A00172EAA077B0803110318013E03191E2E6B
:100C3A00AB077C0803110318013E0319252EAC07E4
:100C4A000830F9000310A90DAA0DAB0DAC0DF90B74
:100C5A00272E2008F9007908F00024080A128A11C0
:100C6A0056200A128A11710883120313B4007008FD
:100C7A00B3003308F9003408FA00FB01FC017908D3
:100C8A00A9077A0803110318013E03194D2EAA0772
:100C9A007B0803110318013E0319542EAB077C0885
:100CAA0003110318013E03195B2EAC072108F90052
:100CBA007908F00026080A128A1156200A128A11A7
:100CCA00710883120313B4007008B3003308F900E3
:100CDA003408FA00FB01FC017908AF077A0803110E
:100CEA000318013E03197A2EB0077B080311031873
:100CFA00013E0319812EB1077C0803110318013E36
:100D0A000319882EB2072208F9007908F00025088D
:100D1A000A128A1156200A128A11710883120313C1
:100D2A00B4007008B3003308F9003408FA00FB0174
:100D3A00FC017908AF077A0803110318013E031969
:100D4A00A72EB0077B0803110318013E0319AE2E24
:100D5A00B1077C0803110318013E0319B52EB20727
:100D6A002208F9007908F00026080A128A1156208A
:100D7A000A128A11710883120313B4007008B300AF
:100D8A003308F9003408FA00FB01FC0108300310AB
:100D9A00F90DFA0DFB0DFC0DFF3E031DCC2E790853
:100DAA00AF077A0803110318013E0319DD2EB007B5
:100DBA007B0803110318013E0319E42EB1077C08CE
:100DCA0003110318013E0319EB2EB2072908F90093
:100DDA002A08FA002B08FB002C08FC001830031024
:100DEA00FC0CFB0CFA0CF90CFF3E031DF42E7908DF
:100DFA00AF077A0803110318013E0319052FB0073C
:100E0A007B0803110318013E03190C2FB1077C0854
:100E1A0003110318013E0319132FB2070830F90012
:100E2A000310A90DAA0DAB0DAC0DF90B152F2E0849
:100E3A002D07F900FA01FA0D7908823EB3007A0803
:100E4A000318013EFF3EB400472F0130F90003109A
:100E5A00AF0DB00DB10DB20DF90B2C2FAC1F362F03
:100E6A00372F382F2F140130F9000310A90DAA0DBE
:100E7A00AB0DAC0DF90B3A2FFF30B3070318B40AC8
:100E8A00FF30B407B11F4A2F4B2F2A2FAD01AC1FD9
:100E9A004F2F502F6C2FFF302905F900FF302A05FC
:100EAA00FA00FF302B05FB007F302C05FC007C0884
:100EBA007B047A0479040319632F642F672FAD0129
:100ECA00AD0A6C2F2F1C6A2F6B2F6C2F642F2D08E5
:100EDA000319702F712FA22F0130AF0700300318AA
:100EEA000130B007003003180130B1070030031891
:100EFA000130B207321C822F832FA22F2F08F9004C
:100F0A003008FA003108FB003208FC000130FD000D
:100F1A007C0DFC0CFB0CFA0CF90CFD0B8D2F7C08DC
:100F2A00B2007B08B1007A08B0007908AF0001303E
:100F3A00B3070318B40A0030B4073408803AFF0034
:100F4A0080307F02031DAB2FFF303302031CAE2F0C
:100F5A00AF2FBA2F7F3083120313B2008030B10053
:100F6A000030B0000030AF00EF2F831203133408B3
:100F7A00803AFF0080307F02031DC52F0130330203
:100F8A000318C82FC92FD52F003083120313B200BC
:100F9A000030B1000030B0000030AF00A801EF2FE0
:100FAA00831203133308F9007908AE00FF30AF0546
:100FBA00FF30B0057F30B1050030B2052E1CE62F98
:100FCA00E72FE82FB1172E08F9000310790CFA0061
:100FDA007A08B2002808F9007908B2043208A30096
:100FEA003108A2003008A1002F08A00008008301E0
:060FFA000A128A11DC2836
:02400E00FE3F73
:00000001FF
